:1000000003308A00522B0000201000004F30840083
:1000100083130008031919280230F800F701F70BC1
:100020000F28F80B0E289730F700F70B1528800BD8
:100030000C28080056181E2888111F288815D61865
:100040002328081224280816561928288812292837
:100050008816D6192D2808132E2808170000081511
:100060003128322808110800D701003088190130E2
:10007000D7040030081A0130F7000310F70D770895
:10008000D7040030881A0130F700F70DF70DFC3067
:10009000F7057708D7040030081B0130F700F70D8B
:1000A000F70DF70DF830F7057708D7045708F80073
:1000B0000800831608110810881083120810831690
:1000C000881508168816081783128814000008156A
:1000D000000034207808D6000811000008157028A8
:1000E00034207808D5000811831688110812881268
:1000F00008138312560EF700F030F7057708550401
:10010000F8007808D500D51B5F28D308031D8A287E
:1001100008108B2808140000881000000811540EE5
:10012000D5000F30D5055508D6001A2054080F39D0
:10013000D500D6001A2008002830C9000C30CA00AB
:100140000130CB000630CC0008110810881083164F
:1001500088110812881208130811081088100F302F
:100160008312CF0006200130C8004808033C031C5E
:10017000C1280330D6001A200530CF000620C80A57
:10018000B5280230D6001A200530CF000620C8015D
:100190004808033C031CD8284930480784008313CF
:1001A0000008CD00D3014D08D4005920C80AC82842
:1001B0008A110A12AE2B500BDE28E1284030D10004
:1001C000E228D10101304F02D10751088038D20016
:1001D000D3015208D400592008004E08073A0319E9
:1001E000FB280B3A03190029063A03190829023A99
:1001F00003190E2913290130CF00D000DB20182964
:10020000D3010130D40059200230CF000620182934
:100210000130CF000230D000DB201829D30110308C
:10022000D400592018290130D3004E08D400592099
:1002300008004E08F8014D02031821294D08F70067
:100240002D29F7010830CF00CD0DF70D4E087702AC
:100250000318F700F80DCF0B2429080078084B0885
:10026000CD006430CE0019217708CB0078083030FB
:10027000031D4129CC1C4829CC1948294C1A20308F
:100280004429CC114C124C14F8077808CE00ED200C
:100290004B08CD000A30CE0019217708CB00780832
:1002A0003030031D5929CC195D294C1C5D294C1A8D
:1002B0002030F8077808CE00ED203030CB074B080F
:1002C000CE00ED200800CB014B08093C031C772928
:1002D000831606148312061C77298316861483124C
:1002E000861C7729CB0A1930CF0006206429080024
:1002F000831606148312061C78298316861483122B
:100300008618BA29C80ABF08031D8A294808173C5D
:10031000031CC8013F0B902948083B3C031CC80143
:100320003F08023C031D9A2948081F3C03189A29DC
:100330000130C8003F08033C031DA42948080C3CB9
:100340000318A4290130C8003F08043C031DAC2950
:100350004808633C031CC8014908CF004A08D00084
:10036000DB204808CB000130CC002E21C830CF0064
:1003700006207D294908CF004A08D000DB20043040
:1003800003178D0000308F0003130B08CB008B1375
:10039000831603178C170C1400000000831203133C
:1003A000CB1B8B1703170C087F390319172A03136C
:1003B000CB0003170D080313CC0003170F0803131A
:1003C000CD004B08CE00ED204C0803178D00031321
:1003D0004D0803178F0003130B08CE008B138316F1
:1003E00003178C170C140000000083120313CE1B9C
:1003F0008B1703170C0D0E0D7F390319172A0313E2
:10040000CB0003170D080313CC0003170F080313C9
:10041000CD004B08CE00ED204C0803178D000313D0
:100420004D0803178F008D0A03198F0AC42903137F
:1004300063214908CF004A08D000DB204808CB00E0
:100440000130CC002E216321831606148312061876
:100450002D2ABF0A4808F8002E2A7D290800941387
:100460008C11480893000230941B3D2A8C1D362ABB
:1004700000308316111B01308312F800080014139A
:10048000831691159119422A77189112771C9116AB
:100490001116111A492A83121308F8000800F701EF
:1004A000F8014A0803104B18F707F70CF80CCB18A3
:1004B000F707F70CF80C4B19F707F70CF80CCB19EA
:1004C000F707F70CF80C4B1AF707F70CF80CCB1AD8
:1004D000F707F70CF80C4B1BF707F70CF80CCB1BC6
:1004E000F707F70CF80C080080080319892AC901DE
:1004F0000408C8004910831B49140008CE00ED20F1
:1005000048088400831349188317840A0319850A4D
:10051000742A0800400EF7000F30F7057708C9006D
:10052000CA000A30CB004F2240080F397807C000BC
:10053000410EF7000F30F7057708C900CA000A30EE
:10054000CB004F2241080F397807C100420EF70057
:100550000F30F7057708C900CA000A30CB004F22D8
:1005600042080F397807C200430EF7000F30F70535
:100570007708C900CA000A30CB004F2243080F3960
:100580007807C300440EF7000F30F7057708C9005D
:10059000CA000A30CB004F2244080F397807C40044
:1005A000450EF7000F30F7057708C900CA000A307A
:1005B000CB004F2245080F397807C5004008CD0011
:1005C0000A30CE00192130307707AD004008CD0049
:1005D0000A30CE00192130307807AC004108CD0038
:1005E0000A30CE00192130307707AA004108CD002B
:1005F0000A30CE00192130307807A9004208CD001A
:100600000A30CE00192130307707A7004208CD000C
:100610000A30CE00192130307807A6004508CD00F9
:100620000A30CE00192130307707BD004508CD00D3
:100630000A30CE00192130307807BC004408CD00C4
:100640000A30CE00192130307707B8004408CD00B9
:100650000A30CE00192130307807B7004308CD00AA
:100660000A30CE00192130307707B5004308CD009D
:100670000A30CE00192130307807B4000130CF00A5
:10068000D000DB2021308400831374220130CF009E
:100690000230D000DB202F308400831374228A11B3
:1006A0000A12922C03081F398300FF30A000A01506
:1006B00020088316870083122016200883168700DF
:1006C0001330930028308312940083169417141368
:1006D0008312C701C60183161F149F141F159F1193
:1006E00007309C00831354308312A1004930A200CC
:1006F0004D30A3004530A4003A30A5002030A600BC
:10070000A7003A30A8002030A900AA003A30AB0078
:100710002030AC00AD00AE014430AF004130B0003D
:100720005430B1004530B2003A30B3002030B4004C
:10073000B5002F30B6002030B700B8002F30B90018
:100740003230BA003030BB002030BC00BD00BE01EA
:10075000003083168800811383129C280C30CE0051
:10076000ED2083160614831206185A2CBF01420886
:10077000C8000630C9000130CA0078217808C200DC
:100780004108C8000930C9000130CA007821780842
:10079000C1004308C8000630C9000230CA007821F1
:1007A0007808C3004408C8000930C9000230CA00F4
:1007B00078217808C4004508C8000E30C90002300E
:1007C000CA0078217808C5004108CD000A30CE0063
:1007D0001921780EC800F030C8054108CD000A3054
:1007E000CE00192177084807C1004208CD000A3021
:1007F000CE001921780EC800F030C8054208CD009F
:100800000A30CE00192177084807C2004308CD00FE
:100810000A30CE001921780EC800F030C805430810
:10082000CD000A30CE00192177084807C3004408DC
:10083000CD000A30CE001921780EC800F030C8056E
:100840004408CD000A30CE00192177084807C400BB
:100850004508CD000A30CE001921780EC800F030CE
:10086000C8054508CD000A30CE0019217708480791
:10087000C5008316111411183B2CD0308312C80008
:100880002F22C8012F22C8012F224108C8002F2281
:100890004208C8002F220130C8002F224308C80098
:1008A0002F224408C8002F224508C8002F22C83034
:1008B000CF0006208316911491185C2CD03083123F
:1008C000C8002F22C8012F22831691149118662C7C
:1008D000D1308312C8002F220130F7003F22780860
:1008E000C0000130F7003F227808C1000130F70056
:1008F0003F227808C2000130F7003F220130F700A4
:100900003F227808C3000130F7003F227808C40076
:10091000F7013F227808C5008316111511198E2C96
:0E09200083128A2A3230CF000620B12B6300EA
:02400E00422F3F
:00000001FF
;PIC16F877A
;CRC=6E59  CREATED="29-Sep-25 22:20"
